{
  "address": "0xF0774618493344741F66cFc511288b3670d71C79",
  "abi": [
    {
      "inputs": [
        {
          "internalType": "contract Registrar",
          "name": "_registrar",
          "type": "address"
        },
        {
          "internalType": "uint256",
          "name": "_commitTime",
          "type": "uint256"
        },
        {
          "internalType": "uint256",
          "name": "_durationTime",
          "type": "uint256"
        },
        {
          "internalType": "uint256",
          "name": "_ethPerLen",
          "type": "uint256"
        },
        {
          "internalType": "uint8",
          "name": "_minNameLength",
          "type": "uint8"
        }
      ],
      "stateMutability": "nonpayable",
      "type": "constructor"
    },
    {
      "anonymous": false,
      "inputs": [
        {
          "indexed": false,
          "internalType": "bytes32",
          "name": "commitment",
          "type": "bytes32"
        }
      ],
      "name": "Committed",
      "type": "event"
    },
    {
      "anonymous": false,
      "inputs": [
        {
          "indexed": true,
          "internalType": "uint256",
          "name": "id",
          "type": "uint256"
        },
        {
          "indexed": true,
          "internalType": "address",
          "name": "owner",
          "type": "address"
        },
        {
          "indexed": false,
          "internalType": "uint256",
          "name": "expires",
          "type": "uint256"
        },
        {
          "indexed": false,
          "internalType": "address",
          "name": "payer",
          "type": "address"
        },
        {
          "indexed": false,
          "internalType": "uint256",
          "name": "price",
          "type": "uint256"
        }
      ],
      "name": "Registered",
      "type": "event"
    },
    {
      "anonymous": false,
      "inputs": [
        {
          "indexed": true,
          "internalType": "uint256",
          "name": "id",
          "type": "uint256"
        },
        {
          "indexed": false,
          "internalType": "uint256",
          "name": "expires",
          "type": "uint256"
        },
        {
          "indexed": false,
          "internalType": "address",
          "name": "payer",
          "type": "address"
        },
        {
          "indexed": false,
          "internalType": "uint256",
          "name": "price",
          "type": "uint256"
        }
      ],
      "name": "Renewed",
      "type": "event"
    },
    {
      "anonymous": false,
      "inputs": [
        {
          "indexed": true,
          "internalType": "uint256",
          "name": "id",
          "type": "uint256"
        },
        {
          "indexed": true,
          "internalType": "address",
          "name": "owner",
          "type": "address"
        },
        {
          "indexed": false,
          "internalType": "uint256",
          "name": "amount",
          "type": "uint256"
        }
      ],
      "name": "Unlock",
      "type": "event"
    },
    {
      "inputs": [
        {
          "internalType": "bytes32",
          "name": "commitment",
          "type": "bytes32"
        }
      ],
      "name": "commit",
      "outputs": [],
      "stateMutability": "nonpayable",
      "type": "function"
    },
    {
      "inputs": [],
      "name": "commitTime",
      "outputs": [
        {
          "internalType": "uint256",
          "name": "",
          "type": "uint256"
        }
      ],
      "stateMutability": "view",
      "type": "function"
    },
    {
      "inputs": [],
      "name": "durationTime",
      "outputs": [
        {
          "internalType": "uint256",
          "name": "",
          "type": "uint256"
        }
      ],
      "stateMutability": "view",
      "type": "function"
    },
    {
      "inputs": [],
      "name": "ethPerLen",
      "outputs": [
        {
          "internalType": "uint256",
          "name": "",
          "type": "uint256"
        }
      ],
      "stateMutability": "view",
      "type": "function"
    },
    {
      "inputs": [
        {
          "internalType": "string",
          "name": "name",
          "type": "string"
        }
      ],
      "name": "getFeePrice",
      "outputs": [
        {
          "internalType": "uint256",
          "name": "",
          "type": "uint256"
        }
      ],
      "stateMutability": "view",
      "type": "function"
    },
    {
      "inputs": [],
      "name": "minNameLength",
      "outputs": [
        {
          "internalType": "uint8",
          "name": "",
          "type": "uint8"
        }
      ],
      "stateMutability": "view",
      "type": "function"
    },
    {
      "inputs": [
        {
          "internalType": "string",
          "name": "name",
          "type": "string"
        },
        {
          "internalType": "address",
          "name": "owner",
          "type": "address"
        },
        {
          "internalType": "bytes32",
          "name": "secret",
          "type": "bytes32"
        }
      ],
      "name": "register",
      "outputs": [],
      "stateMutability": "payable",
      "type": "function"
    },
    {
      "inputs": [
        {
          "internalType": "string",
          "name": "name",
          "type": "string"
        }
      ],
      "name": "renew",
      "outputs": [],
      "stateMutability": "payable",
      "type": "function"
    },
    {
      "inputs": [
        {
          "internalType": "string",
          "name": "name",
          "type": "string"
        }
      ],
      "name": "unlock",
      "outputs": [],
      "stateMutability": "nonpayable",
      "type": "function"
    }
  ],
  "transactionHash": "0xcaafeed0af815aef7ecad927f33e23267fd9f3d9aa8abe6e8bf1a3413e9275a0",
  "args": [
    "0x29F843Eb97C6dEFaA4e357898c9f100df5de64B9",
    "300",
    "3600",
    "1000000000000000",
    "4"
  ],
  "numDeployments": 1,
  "solcInputHash": "8ea462a694b09bbe559237a95e4d1050",
  "bytecode": "0x6101006040523480156200001257600080fd5b5060405162001991380380620019918339818101604052810190620000389190620000f2565b84600160006101000a81548173ffffffffffffffffffffffffffffffffffffffff021916908373ffffffffffffffffffffffffffffffffffffffff16021790555083608081815250508260a081815250508160c081815250508060ff1660e08160ff1660f81b81525050505050505062000221565b600081519050620000be81620001d3565b92915050565b600081519050620000d581620001ed565b92915050565b600081519050620000ec8162000207565b92915050565b600080600080600060a086880312156200010b57600080fd5b60006200011b88828901620000ad565b95505060206200012e88828901620000c4565b94505060406200014188828901620000c4565b93505060606200015488828901620000c4565b92505060806200016788828901620000db565b9150509295509295909350565b600062000181826200019c565b9050919050565b6000620001958262000174565b9050919050565b600073ffffffffffffffffffffffffffffffffffffffff82169050919050565b6000819050919050565b600060ff82169050919050565b620001de8162000188565b8114620001ea57600080fd5b50565b620001f881620001bc565b81146200020457600080fd5b50565b6200021281620001c6565b81146200021e57600080fd5b50565b60805160a05160c05160e05160f81c611709620002886000396000818161020001526105bf015260008181610224015261062501526000818161030c015281816107e701526108ed015260008181610248015281816106a70152610c6b01526117096000f3fe6080604052600436106100865760003560e01c8063a96ce7aa11610059578063a96ce7aa14610128578063e667cc2614610151578063f14fcbc81461018e578063f34b95b3146101b7578063f8b75fb5146101d357610086565b80631b06db3d1461008b5780635df5e9a9146100b65780635e63d890146100e1578063a4a9a6121461010c575b600080fd5b34801561009757600080fd5b506100a06101fe565b6040516100ad919061136e565b60405180910390f35b3480156100c257600080fd5b506100cb610222565b6040516100d891906112f3565b60405180910390f35b3480156100ed57600080fd5b506100f6610246565b60405161010391906112f3565b60405180910390f35b61012660048036038101906101219190610f9e565b61026a565b005b34801561013457600080fd5b5061014f600480360381019061014a9190610f9e565b6103f5565b005b34801561015d57600080fd5b5061017860048036038101906101739190610f9e565b61056b565b60405161018591906112f3565b60405180910390f35b34801561019a57600080fd5b506101b560048036038101906101b09190610f75565b6106a4565b005b6101d160048036038101906101cc9190610fe3565b610776565b005b3480156101df57600080fd5b506101e86108eb565b6040516101f591906112f3565b60405180910390f35b7f000000000000000000000000000000000000000000000000000000000000000081565b7f000000000000000000000000000000000000000000000000000000000000000081565b7f000000000000000000000000000000000000000000000000000000000000000081565b6000610276838361056b565b9050803410156102bb576040517f08c379a00000000000000000000000000000000000000000000000000000000081526004016102b290611253565b60405180910390fd5b60006102c7848461090f565b90506000600160009054906101000a900473ffffffffffffffffffffffffffffffffffffffff1673ffffffffffffffffffffffffffffffffffffffff1663c475abff837f00000000000000000000000000000000000000000000000000000000000000006040518363ffffffff1660e01b8152600401610348929190611345565b602060405180830381600087803b15801561036257600080fd5b505af1158015610376573d6000803e3d6000fd5b505050506040513d601f19601f8201168201806040525081019061039a919061104f565b90506103a98585338685610926565b6103b2836109c6565b817f59e601554770a0621c883aeca968d9135779c85cbf2d1a77cededee4e353b96c8233866040516103e69392919061130e565b60405180910390a25050505050565b6000610401838361090f565b90506000610410848433610a24565b905060005b818054905081101561056457600082828154811061045c577f4e487b7100000000000000000000000000000000000000000000000000000000600052603260045260246000fd5b906000526020600020906003020190504281600101541115801561048f57508060020160009054906101000a900460ff16155b156105505760018160020160006101000a81548160ff0219169083151502179055503373ffffffffffffffffffffffffffffffffffffffff166108fc82600001549081150290604051600060405180830381858888f193505050501580156104fb573d6000803e3d6000fd5b503373ffffffffffffffffffffffffffffffffffffffff16847f4899036909435f0ef100b2258d67d9c644af96bf047bac9f60cbd65f59a80e74836000015460405161054791906112f3565b60405180910390a35b50808061055c906114f7565b915050610415565b5050505050565b6000806105bb84848080601f016020809104026020016040519081016040528093929190818152602001838380828437600081840152601f19601f82011690508083019250505050505050610a4b565b90507f000000000000000000000000000000000000000000000000000000000000000060ff16811015610623576040517f08c379a000000000000000000000000000000000000000000000000000000000815260040161061a906112d3565b60405180910390fd5b7f000000000000000000000000000000000000000000000000000000000000000061069185858080601f016020809104026020016040519081016040528093929190818152602001838380828437600081840152601f19601f82011690508083019250505050505050610a4b565b61069b91906113fb565b91505092915050565b427f000000000000000000000000000000000000000000000000000000000000000060026000848152602001908152602001600020546106e491906113a5565b10610724576040517f08c379a000000000000000000000000000000000000000000000000000000000815260040161071b90611273565b60405180910390fd5b4260026000838152602001908152602001600020819055507f1d835fd041cc3bb34aa7ab8341f3008e52f9e9abe48577aab34a2ba101e5030f8160405161076b9190611238565b60405180910390a150565b600061078485858585610c26565b90506000610793868684610c66565b905060006107a1878761090f565b90506000600160009054906101000a900473ffffffffffffffffffffffffffffffffffffffff1673ffffffffffffffffffffffffffffffffffffffff1663fca247ac83887f00000000000000000000000000000000000000000000000000000000000000006040518463ffffffff1660e01b81526004016108249392919061130e565b602060405180830381600087803b15801561083e57600080fd5b505af1158015610852573d6000803e3d6000fd5b505050506040513d601f19601f82011682018060405250810190610876919061104f565b90506108858888338685610926565b61088e836109c6565b8573ffffffffffffffffffffffffffffffffffffffff16827f6dad6613d67f2414bdd2b278dc1426958093266a461356f72b2e183aca2d6b528333876040516108d99392919061130e565b60405180910390a35050505050505050565b7f000000000000000000000000000000000000000000000000000000000000000081565b600061091b8383610e4f565b60001c905092915050565b600080610934878787610e71565b81526020019081526020016000206040518060600160405280848152602001838152602001600015158152509080600181540180825580915050600190039060005260206000209060030201600090919091909150600082015181600001556020820151816001015560408201518160020160006101000a81548160ff02191690831515021790555050505050505050565b80341115610a21573373ffffffffffffffffffffffffffffffffffffffff166108fc82346109f49190611455565b9081150290604051600060405180830381858888f19350505050158015610a1f573d6000803e3d6000fd5b505b50565b6000806000610a34868686610e71565b815260200190815260200160002090509392505050565b60008060008084519050600092505b80821015610c1b576000858381518110610a9d577f4e487b7100000000000000000000000000000000000000000000000000000000600052603260045260246000fd5b602001015160f81c60f81b9050608060f81b817effffffffffffffffffffffffffffffffffffffffffffffffffffffffffffff19161015610aec57600183610ae591906113a5565b9250610c07565b60e060f81b817effffffffffffffffffffffffffffffffffffffffffffffffffffffffffffff19161015610b2e57600283610b2791906113a5565b9250610c06565b60f060f81b817effffffffffffffffffffffffffffffffffffffffffffffffffffffffffffff19161015610b7057600383610b6991906113a5565b9250610c05565b60f8801b817effffffffffffffffffffffffffffffffffffffffffffffffffffffffffffff19161015610bb157600483610baa91906113a5565b9250610c04565b60fc60f81b817effffffffffffffffffffffffffffffffffffffffffffffffffffffffffffff19161015610bf357600583610bec91906113a5565b9250610c03565b600683610c0091906113a5565b92505b5b5b5b5b508280610c13906114f7565b935050610a5a565b829350505050919050565b6000610c328585610e4f565b8383604051602001610c46939291906111e2565b604051602081830303815290604052805190602001209050949350505050565b6000427f00000000000000000000000000000000000000000000000000000000000000006002600085815260200190815260200160002054610ca891906113a5565b1015610ce9576040517f08c379a0000000000000000000000000000000000000000000000000000000008152600401610ce090611293565b60405180910390fd5b600160009054906101000a900473ffffffffffffffffffffffffffffffffffffffff1673ffffffffffffffffffffffffffffffffffffffff166396e494e8610d31868661090f565b6040518263ffffffff1660e01b8152600401610d4d91906112f3565b60206040518083038186803b158015610d6557600080fd5b505afa158015610d79573d6000803e3d6000fd5b505050506040513d601f19601f82011682018060405250810190610d9d9190610f4c565b610ddc576040517f08c379a0000000000000000000000000000000000000000000000000000000008152600401610dd3906112b3565b60405180910390fd5b60026000838152602001908152602001600020600090556000610dff858561056b565b905080341015610e44576040517f08c379a0000000000000000000000000000000000000000000000000000000008152600401610e3b90611253565b60405180910390fd5b809150509392505050565b60008282604051610e6192919061121f565b6040518091039020905092915050565b6000610e7d8484610e4f565b82604051602001610e8f9291906111b6565b6040516020818303038152906040528051906020012090509392505050565b600081359050610ebd81611677565b92915050565b600081519050610ed28161168e565b92915050565b600081359050610ee7816116a5565b92915050565b60008083601f840112610eff57600080fd5b8235905067ffffffffffffffff811115610f1857600080fd5b602083019150836001820283011115610f3057600080fd5b9250929050565b600081519050610f46816116bc565b92915050565b600060208284031215610f5e57600080fd5b6000610f6c84828501610ec3565b91505092915050565b600060208284031215610f8757600080fd5b6000610f9584828501610ed8565b91505092915050565b60008060208385031215610fb157600080fd5b600083013567ffffffffffffffff811115610fcb57600080fd5b610fd785828601610eed565b92509250509250929050565b60008060008060608587031215610ff957600080fd5b600085013567ffffffffffffffff81111561101357600080fd5b61101f87828801610eed565b9450945050602061103287828801610eae565b925050604061104387828801610ed8565b91505092959194509250565b60006020828403121561106157600080fd5b600061106f84828501610f37565b91505092915050565b61108181611489565b82525050565b61109861109382611489565b611540565b82525050565b6110a7816114a7565b82525050565b6110be6110b9826114a7565b611552565b82525050565b60006110d08385611389565b93506110dd8385846114e8565b82840190509392505050565b60006110f6601583611394565b9150611101826115aa565b602082019050919050565b6000611119601483611394565b9150611124826115d3565b602082019050919050565b600061113c601283611394565b9150611147826115fc565b602082019050919050565b600061115f601183611394565b915061116a82611625565b602082019050919050565b6000611182601483611394565b915061118d8261164e565b602082019050919050565b6111a1816114d1565b82525050565b6111b0816114db565b82525050565b60006111c282856110ad565b6020820191506111d28284611087565b6014820191508190509392505050565b60006111ee82866110ad565b6020820191506111fe8285611087565b60148201915061120e82846110ad565b602082019150819050949350505050565b600061122c8284866110c4565b91508190509392505050565b600060208201905061124d600083018461109e565b92915050565b6000602082019050818103600083015261126c816110e9565b9050919050565b6000602082019050818103600083015261128c8161110c565b9050919050565b600060208201905081810360008301526112ac8161112f565b9050919050565b600060208201905081810360008301526112cc81611152565b9050919050565b600060208201905081810360008301526112ec81611175565b9050919050565b60006020820190506113086000830184611198565b92915050565b60006060820190506113236000830186611198565b6113306020830185611078565b61133d6040830184611198565b949350505050565b600060408201905061135a6000830185611198565b6113676020830184611198565b9392505050565b600060208201905061138360008301846111a7565b92915050565b600081905092915050565b600082825260208201905092915050565b60006113b0826114d1565b91506113bb836114d1565b9250827fffffffffffffffffffffffffffffffffffffffffffffffffffffffffffffffff038211156113f0576113ef61156e565b5b828201905092915050565b6000611406826114d1565b9150611411836114d1565b9250817fffffffffffffffffffffffffffffffffffffffffffffffffffffffffffffffff048311821515161561144a5761144961156e565b5b828202905092915050565b6000611460826114d1565b915061146b836114d1565b92508282101561147e5761147d61156e565b5b828203905092915050565b6000611494826114b1565b9050919050565b60008115159050919050565b6000819050919050565b600073ffffffffffffffffffffffffffffffffffffffff82169050919050565b6000819050919050565b600060ff82169050919050565b82818337600083830152505050565b6000611502826114d1565b91507fffffffffffffffffffffffffffffffffffffffffffffffffffffffffffffffff8214156115355761153461156e565b5b600182019050919050565b600061154b8261155c565b9050919050565b6000819050919050565b60006115678261159d565b9050919050565b7f4e487b7100000000000000000000000000000000000000000000000000000000600052601160045260246000fd5b60008160601b9050919050565b7f56433a204e6f7420656e6f75676820616d6f756e740000000000000000000000600082015250565b7f56433a20416c7265616479207265736572766564000000000000000000000000600082015250565b7f56433a20436f6d6d697420657870697265640000000000000000000000000000600082015250565b7f56433a204e6f7420617661696c61626c65000000000000000000000000000000600082015250565b7f56433a204c656e67746820746f6f2073686f7274000000000000000000000000600082015250565b61168081611489565b811461168b57600080fd5b50565b6116978161149b565b81146116a257600080fd5b50565b6116ae816114a7565b81146116b957600080fd5b50565b6116c5816114d1565b81146116d057600080fd5b5056fea2646970667358221220f3a137bc0184b3b95bc6de42d83884909a27a5c6feee3ee4376a28edccf21be364736f6c63430008040033",
  "devdoc": {
    "kind": "dev",
    "methods": {
      "commit(bytes32)": {
        "details": "Commit generated off-chain commit to later registration",
        "params": {
          "commitment": "from generated secret in order to verify"
        }
      },
      "getFeePrice(string)": {
        "details": "getFeePrice used to calculate fee price for vanity name",
        "params": {
          "name": "a vanity name parameter for fee calculation"
        },
        "returns": {
          "_0": "calculated fee price"
        }
      },
      "register(string,address,bytes32)": {
        "details": "Register a reserved vanity from commitment",
        "params": {
          "name": "a vanity name parameter",
          "owner": "of reserved vanity",
          "secret": "a secret phrase which could be generated dynamically for name reservation"
        }
      },
      "renew(string)": {
        "details": "Renew a reserved vanity from vanity name",
        "params": {
          "name": "a vanity name parameter"
        }
      },
      "unlock(string)": {
        "details": "Unlock a reserved locked amount based on expiration",
        "params": {
          "name": "a vanity name parameter"
        }
      }
    },
    "version": 1
  },
  "userdoc": {
    "kind": "user",
    "methods": {},
    "version": 1
  },
  "storageLayout": {
    "storage": [
      {
        "astId": 2798,
        "contract": "contracts/Controller.sol:Controller",
        "label": "_lockedAmounts",
        "offset": 0,
        "slot": "0",
        "type": "t_mapping(t_bytes32,t_array(t_struct(LockedAmount)2792_storage)dyn_storage)"
      },
      {
        "astId": 2111,
        "contract": "contracts/Controller.sol:Controller",
        "label": "registrar",
        "offset": 0,
        "slot": "1",
        "type": "t_contract(Registrar)2783"
      },
      {
        "astId": 2123,
        "contract": "contracts/Controller.sol:Controller",
        "label": "_commitments",
        "offset": 0,
        "slot": "2",
        "type": "t_mapping(t_bytes32,t_uint256)"
      }
    ],
    "types": {
      "t_array(t_struct(LockedAmount)2792_storage)dyn_storage": {
        "base": "t_struct(LockedAmount)2792_storage",
        "encoding": "dynamic_array",
        "label": "struct WithLock.LockedAmount[]",
        "numberOfBytes": "32"
      },
      "t_bool": {
        "encoding": "inplace",
        "label": "bool",
        "numberOfBytes": "1"
      },
      "t_bytes32": {
        "encoding": "inplace",
        "label": "bytes32",
        "numberOfBytes": "32"
      },
      "t_contract(Registrar)2783": {
        "encoding": "inplace",
        "label": "contract Registrar",
        "numberOfBytes": "20"
      },
      "t_mapping(t_bytes32,t_array(t_struct(LockedAmount)2792_storage)dyn_storage)": {
        "encoding": "mapping",
        "key": "t_bytes32",
        "label": "mapping(bytes32 => struct WithLock.LockedAmount[])",
        "numberOfBytes": "32",
        "value": "t_array(t_struct(LockedAmount)2792_storage)dyn_storage"
      },
      "t_mapping(t_bytes32,t_uint256)": {
        "encoding": "mapping",
        "key": "t_bytes32",
        "label": "mapping(bytes32 => uint256)",
        "numberOfBytes": "32",
        "value": "t_uint256"
      },
      "t_struct(LockedAmount)2792_storage": {
        "encoding": "inplace",
        "label": "struct WithLock.LockedAmount",
        "members": [
          {
            "astId": 2787,
            "contract": "contracts/Controller.sol:Controller",
            "label": "value",
            "offset": 0,
            "slot": "0",
            "type": "t_uint256"
          },
          {
            "astId": 2789,
            "contract": "contracts/Controller.sol:Controller",
            "label": "time",
            "offset": 0,
            "slot": "1",
            "type": "t_uint256"
          },
          {
            "astId": 2791,
            "contract": "contracts/Controller.sol:Controller",
            "label": "claimed",
            "offset": 0,
            "slot": "2",
            "type": "t_bool"
          }
        ],
        "numberOfBytes": "96"
      },
      "t_uint256": {
        "encoding": "inplace",
        "label": "uint256",
        "numberOfBytes": "32"
      }
    }
  }
}