{
  "address": "0x29F843Eb97C6dEFaA4e357898c9f100df5de64B9",
  "abi": [
    {
      "inputs": [],
      "stateMutability": "nonpayable",
      "type": "constructor"
    },
    {
      "anonymous": false,
      "inputs": [
        {
          "indexed": true,
          "internalType": "address",
          "name": "owner",
          "type": "address"
        },
        {
          "indexed": true,
          "internalType": "address",
          "name": "approved",
          "type": "address"
        },
        {
          "indexed": true,
          "internalType": "uint256",
          "name": "tokenId",
          "type": "uint256"
        }
      ],
      "name": "Approval",
      "type": "event"
    },
    {
      "anonymous": false,
      "inputs": [
        {
          "indexed": true,
          "internalType": "address",
          "name": "owner",
          "type": "address"
        },
        {
          "indexed": true,
          "internalType": "address",
          "name": "operator",
          "type": "address"
        },
        {
          "indexed": false,
          "internalType": "bool",
          "name": "approved",
          "type": "bool"
        }
      ],
      "name": "ApprovalForAll",
      "type": "event"
    },
    {
      "anonymous": false,
      "inputs": [
        {
          "indexed": true,
          "internalType": "address",
          "name": "controller",
          "type": "address"
        }
      ],
      "name": "ControllerAdded",
      "type": "event"
    },
    {
      "anonymous": false,
      "inputs": [
        {
          "indexed": true,
          "internalType": "address",
          "name": "controller",
          "type": "address"
        }
      ],
      "name": "ControllerRemoved",
      "type": "event"
    },
    {
      "anonymous": false,
      "inputs": [
        {
          "indexed": true,
          "internalType": "address",
          "name": "previousOwner",
          "type": "address"
        },
        {
          "indexed": true,
          "internalType": "address",
          "name": "newOwner",
          "type": "address"
        }
      ],
      "name": "OwnershipTransferred",
      "type": "event"
    },
    {
      "anonymous": false,
      "inputs": [
        {
          "indexed": true,
          "internalType": "uint256",
          "name": "id",
          "type": "uint256"
        },
        {
          "indexed": true,
          "internalType": "address",
          "name": "owner",
          "type": "address"
        },
        {
          "indexed": false,
          "internalType": "uint256",
          "name": "expires",
          "type": "uint256"
        }
      ],
      "name": "Registered",
      "type": "event"
    },
    {
      "anonymous": false,
      "inputs": [
        {
          "indexed": true,
          "internalType": "uint256",
          "name": "id",
          "type": "uint256"
        },
        {
          "indexed": false,
          "internalType": "uint256",
          "name": "expires",
          "type": "uint256"
        }
      ],
      "name": "Renewed",
      "type": "event"
    },
    {
      "anonymous": false,
      "inputs": [
        {
          "indexed": true,
          "internalType": "address",
          "name": "from",
          "type": "address"
        },
        {
          "indexed": true,
          "internalType": "address",
          "name": "to",
          "type": "address"
        },
        {
          "indexed": true,
          "internalType": "uint256",
          "name": "tokenId",
          "type": "uint256"
        }
      ],
      "name": "Transfer",
      "type": "event"
    },
    {
      "inputs": [
        {
          "internalType": "address",
          "name": "controller",
          "type": "address"
        }
      ],
      "name": "addController",
      "outputs": [],
      "stateMutability": "nonpayable",
      "type": "function"
    },
    {
      "inputs": [
        {
          "internalType": "address",
          "name": "to",
          "type": "address"
        },
        {
          "internalType": "uint256",
          "name": "tokenId",
          "type": "uint256"
        }
      ],
      "name": "approve",
      "outputs": [],
      "stateMutability": "nonpayable",
      "type": "function"
    },
    {
      "inputs": [
        {
          "internalType": "uint256",
          "name": "id",
          "type": "uint256"
        }
      ],
      "name": "available",
      "outputs": [
        {
          "internalType": "bool",
          "name": "",
          "type": "bool"
        }
      ],
      "stateMutability": "view",
      "type": "function"
    },
    {
      "inputs": [
        {
          "internalType": "address",
          "name": "owner",
          "type": "address"
        }
      ],
      "name": "balanceOf",
      "outputs": [
        {
          "internalType": "uint256",
          "name": "",
          "type": "uint256"
        }
      ],
      "stateMutability": "view",
      "type": "function"
    },
    {
      "inputs": [
        {
          "internalType": "address",
          "name": "",
          "type": "address"
        }
      ],
      "name": "controllers",
      "outputs": [
        {
          "internalType": "bool",
          "name": "",
          "type": "bool"
        }
      ],
      "stateMutability": "view",
      "type": "function"
    },
    {
      "inputs": [
        {
          "internalType": "uint256",
          "name": "",
          "type": "uint256"
        }
      ],
      "name": "expiries",
      "outputs": [
        {
          "internalType": "uint256",
          "name": "",
          "type": "uint256"
        }
      ],
      "stateMutability": "view",
      "type": "function"
    },
    {
      "inputs": [
        {
          "internalType": "uint256",
          "name": "tokenId",
          "type": "uint256"
        }
      ],
      "name": "getApproved",
      "outputs": [
        {
          "internalType": "address",
          "name": "",
          "type": "address"
        }
      ],
      "stateMutability": "view",
      "type": "function"
    },
    {
      "inputs": [
        {
          "internalType": "address",
          "name": "owner",
          "type": "address"
        },
        {
          "internalType": "address",
          "name": "operator",
          "type": "address"
        }
      ],
      "name": "isApprovedForAll",
      "outputs": [
        {
          "internalType": "bool",
          "name": "",
          "type": "bool"
        }
      ],
      "stateMutability": "view",
      "type": "function"
    },
    {
      "inputs": [],
      "name": "name",
      "outputs": [
        {
          "internalType": "string",
          "name": "",
          "type": "string"
        }
      ],
      "stateMutability": "view",
      "type": "function"
    },
    {
      "inputs": [],
      "name": "owner",
      "outputs": [
        {
          "internalType": "address",
          "name": "",
          "type": "address"
        }
      ],
      "stateMutability": "view",
      "type": "function"
    },
    {
      "inputs": [
        {
          "internalType": "uint256",
          "name": "tokenId",
          "type": "uint256"
        }
      ],
      "name": "ownerOf",
      "outputs": [
        {
          "internalType": "address",
          "name": "",
          "type": "address"
        }
      ],
      "stateMutability": "view",
      "type": "function"
    },
    {
      "inputs": [
        {
          "internalType": "uint256",
          "name": "id",
          "type": "uint256"
        },
        {
          "internalType": "address",
          "name": "owner",
          "type": "address"
        },
        {
          "internalType": "uint256",
          "name": "duration",
          "type": "uint256"
        }
      ],
      "name": "register",
      "outputs": [
        {
          "internalType": "uint256",
          "name": "",
          "type": "uint256"
        }
      ],
      "stateMutability": "nonpayable",
      "type": "function"
    },
    {
      "inputs": [
        {
          "internalType": "address",
          "name": "controller",
          "type": "address"
        }
      ],
      "name": "removeController",
      "outputs": [],
      "stateMutability": "nonpayable",
      "type": "function"
    },
    {
      "inputs": [
        {
          "internalType": "uint256",
          "name": "id",
          "type": "uint256"
        },
        {
          "internalType": "uint256",
          "name": "duration",
          "type": "uint256"
        }
      ],
      "name": "renew",
      "outputs": [
        {
          "internalType": "uint256",
          "name": "",
          "type": "uint256"
        }
      ],
      "stateMutability": "nonpayable",
      "type": "function"
    },
    {
      "inputs": [],
      "name": "renounceOwnership",
      "outputs": [],
      "stateMutability": "nonpayable",
      "type": "function"
    },
    {
      "inputs": [
        {
          "internalType": "address",
          "name": "from",
          "type": "address"
        },
        {
          "internalType": "address",
          "name": "to",
          "type": "address"
        },
        {
          "internalType": "uint256",
          "name": "tokenId",
          "type": "uint256"
        }
      ],
      "name": "safeTransferFrom",
      "outputs": [],
      "stateMutability": "nonpayable",
      "type": "function"
    },
    {
      "inputs": [
        {
          "internalType": "address",
          "name": "from",
          "type": "address"
        },
        {
          "internalType": "address",
          "name": "to",
          "type": "address"
        },
        {
          "internalType": "uint256",
          "name": "tokenId",
          "type": "uint256"
        },
        {
          "internalType": "bytes",
          "name": "_data",
          "type": "bytes"
        }
      ],
      "name": "safeTransferFrom",
      "outputs": [],
      "stateMutability": "nonpayable",
      "type": "function"
    },
    {
      "inputs": [
        {
          "internalType": "address",
          "name": "operator",
          "type": "address"
        },
        {
          "internalType": "bool",
          "name": "approved",
          "type": "bool"
        }
      ],
      "name": "setApprovalForAll",
      "outputs": [],
      "stateMutability": "nonpayable",
      "type": "function"
    },
    {
      "inputs": [
        {
          "internalType": "bytes4",
          "name": "interfaceId",
          "type": "bytes4"
        }
      ],
      "name": "supportsInterface",
      "outputs": [
        {
          "internalType": "bool",
          "name": "",
          "type": "bool"
        }
      ],
      "stateMutability": "view",
      "type": "function"
    },
    {
      "inputs": [],
      "name": "symbol",
      "outputs": [
        {
          "internalType": "string",
          "name": "",
          "type": "string"
        }
      ],
      "stateMutability": "view",
      "type": "function"
    },
    {
      "inputs": [
        {
          "internalType": "uint256",
          "name": "tokenId",
          "type": "uint256"
        }
      ],
      "name": "tokenURI",
      "outputs": [
        {
          "internalType": "string",
          "name": "",
          "type": "string"
        }
      ],
      "stateMutability": "view",
      "type": "function"
    },
    {
      "inputs": [
        {
          "internalType": "address",
          "name": "from",
          "type": "address"
        },
        {
          "internalType": "address",
          "name": "to",
          "type": "address"
        },
        {
          "internalType": "uint256",
          "name": "tokenId",
          "type": "uint256"
        }
      ],
      "name": "transferFrom",
      "outputs": [],
      "stateMutability": "nonpayable",
      "type": "function"
    },
    {
      "inputs": [
        {
          "internalType": "address",
          "name": "newOwner",
          "type": "address"
        }
      ],
      "name": "transferOwnership",
      "outputs": [],
      "stateMutability": "nonpayable",
      "type": "function"
    }
  ],
  "transactionHash": "0xb7663b3f79b39c1bfebb41400d39ec0164eade7ffd4fd3dfacbf551a754981b3",
  "args": [],
  "numDeployments": 1,
  "solcInputHash": "8ea462a694b09bbe559237a95e4d1050",
  "bytecode": "0x60806040523480156200001157600080fd5b506040518060400160405280601081526020017f56616e69747920726567697374726172000000000000000000000000000000008152506040518060400160405280600281526020017f5652000000000000000000000000000000000000000000000000000000000000815250816000908051906020019062000096929190620001a6565b508060019080519060200190620000af929190620001a6565b505050620000d2620000c6620000d860201b60201c565b620000e060201b60201c565b620002bb565b600033905090565b6000600660009054906101000a900473ffffffffffffffffffffffffffffffffffffffff16905081600660006101000a81548173ffffffffffffffffffffffffffffffffffffffff021916908373ffffffffffffffffffffffffffffffffffffffff1602179055508173ffffffffffffffffffffffffffffffffffffffff168173ffffffffffffffffffffffffffffffffffffffff167f8be0079c531659141344cd1fd0a4f28419497f9722a3daafe3b4186f6b6457e060405160405180910390a35050565b828054620001b49062000256565b90600052602060002090601f016020900481019282620001d8576000855562000224565b82601f10620001f357805160ff191683800117855562000224565b8280016001018555821562000224579182015b828111156200022357825182559160200191906001019062000206565b5b50905062000233919062000237565b5090565b5b808211156200025257600081600090555060010162000238565b5090565b600060028204905060018216806200026f57607f821691505b602082108114156200028657620002856200028c565b5b50919050565b7f4e487b7100000000000000000000000000000000000000000000000000000000600052602260045260246000fd5b61354580620002cb6000396000f3fe608060405234801561001057600080fd5b506004361061014d5760003560e01c806396e494e8116100c3578063c87b56dd1161007c578063c87b56dd146103ae578063da8c229e146103de578063e985e9c51461040e578063f2fde38b1461043e578063f6a74ed71461045a578063fca247ac146104765761014d565b806396e494e8146102ca578063a22cb465146102fa578063a7fc7a0714610316578063b88d4fde14610332578063b9cce3281461034e578063c475abff1461037e5761014d565b806342842e0e1161011557806342842e0e146102085780636352211e1461022457806370a0823114610254578063715018a6146102845780638da5cb5b1461028e57806395d89b41146102ac5761014d565b806301ffc9a71461015257806306fdde0314610182578063081812fc146101a0578063095ea7b3146101d057806323b872dd146101ec575b600080fd5b61016c6004803603810190610167919061240e565b6104a6565b604051610179919061292b565b60405180910390f35b61018a610588565b6040516101979190612946565b60405180910390f35b6101ba60048036038101906101b59190612460565b61061a565b6040516101c791906128c4565b60405180910390f35b6101ea60048036038101906101e591906123d2565b61069f565b005b610206600480360381019061020191906122cc565b6107b7565b005b610222600480360381019061021d91906122cc565b610817565b005b61023e60048036038101906102399190612460565b610837565b60405161024b91906128c4565b60405180910390f35b61026e60048036038101906102699190612267565b6108e9565b60405161027b9190612be8565b60405180910390f35b61028c6109a1565b005b610296610a29565b6040516102a391906128c4565b60405180910390f35b6102b4610a53565b6040516102c19190612946565b60405180910390f35b6102e460048036038101906102df9190612460565b610ae5565b6040516102f1919061292b565b60405180910390f35b610314600480360381019061030f9190612396565b610b04565b005b610330600480360381019061032b9190612267565b610b1a565b005b61034c6004803603810190610347919061231b565b610c34565b005b61036860048036038101906103639190612460565b610c96565b6040516103759190612be8565b60405180910390f35b610398600480360381019061039391906124d8565b610cae565b6040516103a59190612be8565b60405180910390f35b6103c860048036038101906103c39190612460565b610e83565b6040516103d59190612946565b60405180910390f35b6103f860048036038101906103f39190612267565b610f2a565b604051610405919061292b565b60405180910390f35b61042860048036038101906104239190612290565b610f4a565b604051610435919061292b565b60405180910390f35b61045860048036038101906104539190612267565b610fde565b005b610474600480360381019061046f9190612267565b6110d6565b005b610490600480360381019061048b9190612489565b6111f0565b60405161049d9190612be8565b60405180910390f35b60007f80ac58cd000000000000000000000000000000000000000000000000000000007bffffffffffffffffffffffffffffffffffffffffffffffffffffffff1916827bffffffffffffffffffffffffffffffffffffffffffffffffffffffff1916148061057157507f5b5e139f000000000000000000000000000000000000000000000000000000007bffffffffffffffffffffffffffffffffffffffffffffffffffffffff1916827bffffffffffffffffffffffffffffffffffffffffffffffffffffffff1916145b806105815750610580826113ac565b5b9050919050565b60606000805461059790612e0d565b80601f01602080910402602001604051908101604052809291908181526020018280546105c390612e0d565b80156106105780601f106105e557610100808354040283529160200191610610565b820191906000526020600020905b8154815290600101906020018083116105f357829003601f168201915b5050505050905090565b600061062582611416565b610664576040517f08c379a000000000000000000000000000000000000000000000000000000000815260040161065b90612b28565b60405180910390fd5b6004600083815260200190815260200160002060009054906101000a900473ffffffffffffffffffffffffffffffffffffffff169050919050565b60006106aa82610837565b90508073ffffffffffffffffffffffffffffffffffffffff168373ffffffffffffffffffffffffffffffffffffffff16141561071b576040517f08c379a000000000000000000000000000000000000000000000000000000000815260040161071290612b88565b60405180910390fd5b8073ffffffffffffffffffffffffffffffffffffffff1661073a611482565b73ffffffffffffffffffffffffffffffffffffffff161480610769575061076881610763611482565b610f4a565b5b6107a8576040517f08c379a000000000000000000000000000000000000000000000000000000000815260040161079f90612a88565b60405180910390fd5b6107b2838361148a565b505050565b6107c86107c2611482565b82611543565b610807576040517f08c379a00000000000000000000000000000000000000000000000000000000081526004016107fe90612ba8565b60405180910390fd5b610812838383611621565b505050565b61083283838360405180602001604052806000815250610c34565b505050565b6000806002600084815260200190815260200160002060009054906101000a900473ffffffffffffffffffffffffffffffffffffffff169050600073ffffffffffffffffffffffffffffffffffffffff168173ffffffffffffffffffffffffffffffffffffffff1614156108e0576040517f08c379a00000000000000000000000000000000000000000000000000000000081526004016108d790612ae8565b60405180910390fd5b80915050919050565b60008073ffffffffffffffffffffffffffffffffffffffff168273ffffffffffffffffffffffffffffffffffffffff16141561095a576040517f08c379a000000000000000000000000000000000000000000000000000000000815260040161095190612ac8565b60405180910390fd5b600360008373ffffffffffffffffffffffffffffffffffffffff1673ffffffffffffffffffffffffffffffffffffffff168152602001908152602001600020549050919050565b6109a9611482565b73ffffffffffffffffffffffffffffffffffffffff166109c7610a29565b73ffffffffffffffffffffffffffffffffffffffff1614610a1d576040517f08c379a0000000000000000000000000000000000000000000000000000000008152600401610a1490612b48565b60405180910390fd5b610a276000611888565b565b6000600660009054906101000a900473ffffffffffffffffffffffffffffffffffffffff16905090565b606060018054610a6290612e0d565b80601f0160208091040260200160405190810160405280929190818152602001828054610a8e90612e0d565b8015610adb5780601f10610ab057610100808354040283529160200191610adb565b820191906000526020600020905b815481529060010190602001808311610abe57829003601f168201915b5050505050905090565b6000426007600084815260200190815260200160002054109050919050565b610b16610b0f611482565b838361194e565b5050565b610b22611482565b73ffffffffffffffffffffffffffffffffffffffff16610b40610a29565b73ffffffffffffffffffffffffffffffffffffffff1614610b96576040517f08c379a0000000000000000000000000000000000000000000000000000000008152600401610b8d90612b48565b60405180910390fd5b6001600860008373ffffffffffffffffffffffffffffffffffffffff1673ffffffffffffffffffffffffffffffffffffffff16815260200190815260200160002060006101000a81548160ff0219169083151502179055508073ffffffffffffffffffffffffffffffffffffffff167f0a8bb31534c0ed46f380cb867bd5c803a189ced9a764e30b3a4991a9901d747460405160405180910390a250565b610c45610c3f611482565b83611543565b610c84576040517f08c379a0000000000000000000000000000000000000000000000000000000008152600401610c7b90612ba8565b60405180910390fd5b610c9084848484611abb565b50505050565b60076020528060005260406000206000915090505481565b6000600860003373ffffffffffffffffffffffffffffffffffffffff1673ffffffffffffffffffffffffffffffffffffffff16815260200190815260200160002060009054906101000a900460ff16610d3c576040517f08c379a0000000000000000000000000000000000000000000000000000000008152600401610d3390612aa8565b60405180910390fd5b4260076000858152602001908152602001600020541015610d92576040517f08c379a0000000000000000000000000000000000000000000000000000000008152600401610d8990612a68565b60405180910390fd5b81826007600086815260200190815260200160002054610db29190612c9c565b11610df2576040517f08c379a0000000000000000000000000000000000000000000000000000000008152600401610de990612a28565b60405180910390fd5b81600760008581526020019081526020016000206000828254610e159190612c9c565b92505081905550827fa3b231fbb516462c26b9b2de2c4ab9072ef38e6f324e8a0d3a5f28f420758d4c6007600086815260200190815260200160002054604051610e5f9190612be8565b60405180910390a26007600084815260200190815260200160002054905092915050565b6060610e8e82611416565b610ecd576040517f08c379a0000000000000000000000000000000000000000000000000000000008152600401610ec490612b68565b60405180910390fd5b6000610ed7611b17565b90506000815111610ef75760405180602001604052806000815250610f22565b80610f0184611b2e565b604051602001610f129291906128a0565b6040516020818303038152906040525b915050919050565b60086020528060005260406000206000915054906101000a900460ff1681565b6000600560008473ffffffffffffffffffffffffffffffffffffffff1673ffffffffffffffffffffffffffffffffffffffff16815260200190815260200160002060008373ffffffffffffffffffffffffffffffffffffffff1673ffffffffffffffffffffffffffffffffffffffff16815260200190815260200160002060009054906101000a900460ff16905092915050565b610fe6611482565b73ffffffffffffffffffffffffffffffffffffffff16611004610a29565b73ffffffffffffffffffffffffffffffffffffffff161461105a576040517f08c379a000000000000000000000000000000000000000000000000000000000815260040161105190612b48565b60405180910390fd5b600073ffffffffffffffffffffffffffffffffffffffff168173ffffffffffffffffffffffffffffffffffffffff1614156110ca576040517f08c379a00000000000000000000000000000000000000000000000000000000081526004016110c190612988565b60405180910390fd5b6110d381611888565b50565b6110de611482565b73ffffffffffffffffffffffffffffffffffffffff166110fc610a29565b73ffffffffffffffffffffffffffffffffffffffff1614611152576040517f08c379a000000000000000000000000000000000000000000000000000000000815260040161114990612b48565b60405180910390fd5b6000600860008373ffffffffffffffffffffffffffffffffffffffff1673ffffffffffffffffffffffffffffffffffffffff16815260200190815260200160002060006101000a81548160ff0219169083151502179055508073ffffffffffffffffffffffffffffffffffffffff167f33d83959be2573f5453b12eb9d43b3499bc57d96bd2f067ba44803c859e8111360405160405180910390a250565b6000600860003373ffffffffffffffffffffffffffffffffffffffff1673ffffffffffffffffffffffffffffffffffffffff16815260200190815260200160002060009054906101000a900460ff1661127e576040517f08c379a000000000000000000000000000000000000000000000000000000000815260040161127590612aa8565b60405180910390fd5b61128784610ae5565b6112c6576040517f08c379a00000000000000000000000000000000000000000000000000000000081526004016112bd90612bc8565b60405180910390fd5b600082426112d49190612c9c565b9050428111611318576040517f08c379a000000000000000000000000000000000000000000000000000000000815260040161130f90612a28565b60405180910390fd5b80600760008781526020019081526020016000208190555061133985611416565b156113485761134785611cdb565b5b6113528486611df8565b8373ffffffffffffffffffffffffffffffffffffffff16857f39dd062cc095bf933d83338d8e4591b7eb119264d876f173cacb1cfdf2c9737f836040516113999190612be8565b60405180910390a3809150509392505050565b60007f01ffc9a7000000000000000000000000000000000000000000000000000000007bffffffffffffffffffffffffffffffffffffffffffffffffffffffff1916827bffffffffffffffffffffffffffffffffffffffffffffffffffffffff1916149050919050565b60008073ffffffffffffffffffffffffffffffffffffffff166002600084815260200190815260200160002060009054906101000a900473ffffffffffffffffffffffffffffffffffffffff1673ffffffffffffffffffffffffffffffffffffffff1614159050919050565b600033905090565b816004600083815260200190815260200160002060006101000a81548173ffffffffffffffffffffffffffffffffffffffff021916908373ffffffffffffffffffffffffffffffffffffffff160217905550808273ffffffffffffffffffffffffffffffffffffffff166114fd83610837565b73ffffffffffffffffffffffffffffffffffffffff167f8c5be1e5ebec7d5bd14f71427d1e84f3dd0314c0f7b2291e5b200ac8c7c3b92560405160405180910390a45050565b600061154e82611416565b61158d576040517f08c379a000000000000000000000000000000000000000000000000000000000815260040161158490612a48565b60405180910390fd5b600061159883610837565b90508073ffffffffffffffffffffffffffffffffffffffff168473ffffffffffffffffffffffffffffffffffffffff1614806115da57506115d98185610f4a565b5b8061161857508373ffffffffffffffffffffffffffffffffffffffff166116008461061a565b73ffffffffffffffffffffffffffffffffffffffff16145b91505092915050565b8273ffffffffffffffffffffffffffffffffffffffff1661164182610837565b73ffffffffffffffffffffffffffffffffffffffff1614611697576040517f08c379a000000000000000000000000000000000000000000000000000000000815260040161168e906129a8565b60405180910390fd5b600073ffffffffffffffffffffffffffffffffffffffff168273ffffffffffffffffffffffffffffffffffffffff161415611707576040517f08c379a00000000000000000000000000000000000000000000000000000000081526004016116fe906129e8565b60405180910390fd5b611712838383611fd2565b61171d60008261148a565b6001600360008573ffffffffffffffffffffffffffffffffffffffff1673ffffffffffffffffffffffffffffffffffffffff168152602001908152602001600020600082825461176d9190612d23565b925050819055506001600360008473ffffffffffffffffffffffffffffffffffffffff1673ffffffffffffffffffffffffffffffffffffffff16815260200190815260200160002060008282546117c49190612c9c565b92505081905550816002600083815260200190815260200160002060006101000a81548173ffffffffffffffffffffffffffffffffffffffff021916908373ffffffffffffffffffffffffffffffffffffffff160217905550808273ffffffffffffffffffffffffffffffffffffffff168473ffffffffffffffffffffffffffffffffffffffff167fddf252ad1be2c89b69c2b068fc378daa952ba7f163c4a11628f55a4df523b3ef60405160405180910390a4611883838383611fd7565b505050565b6000600660009054906101000a900473ffffffffffffffffffffffffffffffffffffffff16905081600660006101000a81548173ffffffffffffffffffffffffffffffffffffffff021916908373ffffffffffffffffffffffffffffffffffffffff1602179055508173ffffffffffffffffffffffffffffffffffffffff168173ffffffffffffffffffffffffffffffffffffffff167f8be0079c531659141344cd1fd0a4f28419497f9722a3daafe3b4186f6b6457e060405160405180910390a35050565b8173ffffffffffffffffffffffffffffffffffffffff168373ffffffffffffffffffffffffffffffffffffffff1614156119bd576040517f08c379a00000000000000000000000000000000000000000000000000000000081526004016119b490612a08565b60405180910390fd5b80600560008573ffffffffffffffffffffffffffffffffffffffff1673ffffffffffffffffffffffffffffffffffffffff16815260200190815260200160002060008473ffffffffffffffffffffffffffffffffffffffff1673ffffffffffffffffffffffffffffffffffffffff16815260200190815260200160002060006101000a81548160ff0219169083151502179055508173ffffffffffffffffffffffffffffffffffffffff168373ffffffffffffffffffffffffffffffffffffffff167f17307eab39ab6107e8899845ad3d59bd9653f200f220920489ca2b5937696c3183604051611aae919061292b565b60405180910390a3505050565b611ac6848484611621565b611ad284848484611fdc565b611b11576040517f08c379a0000000000000000000000000000000000000000000000000000000008152600401611b0890612968565b60405180910390fd5b50505050565b606060405180602001604052806000815250905090565b60606000821415611b76576040518060400160405280600181526020017f30000000000000000000000000000000000000000000000000000000000000008152509050611cd6565b600082905060005b60008214611ba8578080611b9190612e70565b915050600a82611ba19190612cf2565b9150611b7e565b60008167ffffffffffffffff811115611bea577f4e487b7100000000000000000000000000000000000000000000000000000000600052604160045260246000fd5b6040519080825280601f01601f191660200182016040528015611c1c5781602001600182028036833780820191505090505b5090505b60008514611ccf57600182611c359190612d23565b9150600a85611c449190612eb9565b6030611c509190612c9c565b60f81b818381518110611c8c577f4e487b7100000000000000000000000000000000000000000000000000000000600052603260045260246000fd5b60200101907effffffffffffffffffffffffffffffffffffffffffffffffffffffffffffff1916908160001a905350600a85611cc89190612cf2565b9450611c20565b8093505050505b919050565b6000611ce682610837565b9050611cf481600084611fd2565b611cff60008361148a565b6001600360008373ffffffffffffffffffffffffffffffffffffffff1673ffffffffffffffffffffffffffffffffffffffff1681526020019081526020016000206000828254611d4f9190612d23565b925050819055506002600083815260200190815260200160002060006101000a81549073ffffffffffffffffffffffffffffffffffffffff021916905581600073ffffffffffffffffffffffffffffffffffffffff168273ffffffffffffffffffffffffffffffffffffffff167fddf252ad1be2c89b69c2b068fc378daa952ba7f163c4a11628f55a4df523b3ef60405160405180910390a4611df481600084611fd7565b5050565b600073ffffffffffffffffffffffffffffffffffffffff168273ffffffffffffffffffffffffffffffffffffffff161415611e68576040517f08c379a0000000000000000000000000000000000000000000000000000000008152600401611e5f90612b08565b60405180910390fd5b611e7181611416565b15611eb1576040517f08c379a0000000000000000000000000000000000000000000000000000000008152600401611ea8906129c8565b60405180910390fd5b611ebd60008383611fd2565b6001600360008473ffffffffffffffffffffffffffffffffffffffff1673ffffffffffffffffffffffffffffffffffffffff1681526020019081526020016000206000828254611f0d9190612c9c565b92505081905550816002600083815260200190815260200160002060006101000a81548173ffffffffffffffffffffffffffffffffffffffff021916908373ffffffffffffffffffffffffffffffffffffffff160217905550808273ffffffffffffffffffffffffffffffffffffffff16600073ffffffffffffffffffffffffffffffffffffffff167fddf252ad1be2c89b69c2b068fc378daa952ba7f163c4a11628f55a4df523b3ef60405160405180910390a4611fce60008383611fd7565b5050565b505050565b505050565b6000611ffd8473ffffffffffffffffffffffffffffffffffffffff16612173565b15612166578373ffffffffffffffffffffffffffffffffffffffff1663150b7a02612026611482565b8786866040518563ffffffff1660e01b815260040161204894939291906128df565b602060405180830381600087803b15801561206257600080fd5b505af192505050801561209357506040513d601f19601f820116820180604052508101906120909190612437565b60015b612116573d80600081146120c3576040519150601f19603f3d011682016040523d82523d6000602084013e6120c8565b606091505b5060008151141561210e576040517f08c379a000000000000000000000000000000000000000000000000000000000815260040161210590612968565b60405180910390fd5b805181602001fd5b63150b7a0260e01b7bffffffffffffffffffffffffffffffffffffffffffffffffffffffff1916817bffffffffffffffffffffffffffffffffffffffffffffffffffffffff19161491505061216b565b600190505b949350505050565b6000808273ffffffffffffffffffffffffffffffffffffffff163b119050919050565b60006121a96121a484612c28565b612c03565b9050828152602081018484840111156121c157600080fd5b6121cc848285612dcb565b509392505050565b6000813590506121e3816134b3565b92915050565b6000813590506121f8816134ca565b92915050565b60008135905061220d816134e1565b92915050565b600081519050612222816134e1565b92915050565b600082601f83011261223957600080fd5b8135612249848260208601612196565b91505092915050565b600081359050612261816134f8565b92915050565b60006020828403121561227957600080fd5b6000612287848285016121d4565b91505092915050565b600080604083850312156122a357600080fd5b60006122b1858286016121d4565b92505060206122c2858286016121d4565b9150509250929050565b6000806000606084860312156122e157600080fd5b60006122ef868287016121d4565b9350506020612300868287016121d4565b925050604061231186828701612252565b9150509250925092565b6000806000806080858703121561233157600080fd5b600061233f878288016121d4565b9450506020612350878288016121d4565b935050604061236187828801612252565b925050606085013567ffffffffffffffff81111561237e57600080fd5b61238a87828801612228565b91505092959194509250565b600080604083850312156123a957600080fd5b60006123b7858286016121d4565b92505060206123c8858286016121e9565b9150509250929050565b600080604083850312156123e557600080fd5b60006123f3858286016121d4565b925050602061240485828601612252565b9150509250929050565b60006020828403121561242057600080fd5b600061242e848285016121fe565b91505092915050565b60006020828403121561244957600080fd5b600061245784828501612213565b91505092915050565b60006020828403121561247257600080fd5b600061248084828501612252565b91505092915050565b60008060006060848603121561249e57600080fd5b60006124ac86828701612252565b93505060206124bd868287016121d4565b92505060406124ce86828701612252565b9150509250925092565b600080604083850312156124eb57600080fd5b60006124f985828601612252565b925050602061250a85828601612252565b9150509250929050565b61251d81612d57565b82525050565b61252c81612d69565b82525050565b600061253d82612c59565b6125478185612c6f565b9350612557818560208601612dda565b61256081612fa6565b840191505092915050565b600061257682612c64565b6125808185612c80565b9350612590818560208601612dda565b61259981612fa6565b840191505092915050565b60006125af82612c64565b6125b98185612c91565b93506125c9818560208601612dda565b80840191505092915050565b60006125e2603283612c80565b91506125ed82612fb7565b604082019050919050565b6000612605602683612c80565b915061261082613006565b604082019050919050565b6000612628602583612c80565b915061263382613055565b604082019050919050565b600061264b601c83612c80565b9150612656826130a4565b602082019050919050565b600061266e602483612c80565b9150612679826130cd565b604082019050919050565b6000612691601983612c80565b915061269c8261311c565b602082019050919050565b60006126b4601183612c80565b91506126bf82613145565b602082019050919050565b60006126d7602c83612c80565b91506126e28261316e565b604082019050919050565b60006126fa600b83612c80565b9150612705826131bd565b602082019050919050565b600061271d603883612c80565b9150612728826131e6565b604082019050919050565b6000612740601883612c80565b915061274b82613235565b602082019050919050565b6000612763602a83612c80565b915061276e8261325e565b604082019050919050565b6000612786602983612c80565b9150612791826132ad565b604082019050919050565b60006127a9602083612c80565b91506127b4826132fc565b602082019050919050565b60006127cc602c83612c80565b91506127d782613325565b604082019050919050565b60006127ef602083612c80565b91506127fa82613374565b602082019050919050565b6000612812602f83612c80565b915061281d8261339d565b604082019050919050565b6000612835602183612c80565b9150612840826133ec565b604082019050919050565b6000612858603183612c80565b91506128638261343b565b604082019050919050565b600061287b600f83612c80565b91506128868261348a565b602082019050919050565b61289a81612dc1565b82525050565b60006128ac82856125a4565b91506128b882846125a4565b91508190509392505050565b60006020820190506128d96000830184612514565b92915050565b60006080820190506128f46000830187612514565b6129016020830186612514565b61290e6040830185612891565b81810360608301526129208184612532565b905095945050505050565b60006020820190506129406000830184612523565b92915050565b60006020820190508181036000830152612960818461256b565b905092915050565b60006020820190508181036000830152612981816125d5565b9050919050565b600060208201905081810360008301526129a1816125f8565b9050919050565b600060208201905081810360008301526129c18161261b565b9050919050565b600060208201905081810360008301526129e18161263e565b9050919050565b60006020820190508181036000830152612a0181612661565b9050919050565b60006020820190508181036000830152612a2181612684565b9050919050565b60006020820190508181036000830152612a41816126a7565b9050919050565b60006020820190508181036000830152612a61816126ca565b9050919050565b60006020820190508181036000830152612a81816126ed565b9050919050565b60006020820190508181036000830152612aa181612710565b9050919050565b60006020820190508181036000830152612ac181612733565b9050919050565b60006020820190508181036000830152612ae181612756565b9050919050565b60006020820190508181036000830152612b0181612779565b9050919050565b60006020820190508181036000830152612b218161279c565b9050919050565b60006020820190508181036000830152612b41816127bf565b9050919050565b60006020820190508181036000830152612b61816127e2565b9050919050565b60006020820190508181036000830152612b8181612805565b9050919050565b60006020820190508181036000830152612ba181612828565b9050919050565b60006020820190508181036000830152612bc18161284b565b9050919050565b60006020820190508181036000830152612be18161286e565b9050919050565b6000602082019050612bfd6000830184612891565b92915050565b6000612c0d612c1e565b9050612c198282612e3f565b919050565b6000604051905090565b600067ffffffffffffffff821115612c4357612c42612f77565b5b612c4c82612fa6565b9050602081019050919050565b600081519050919050565b600081519050919050565b600082825260208201905092915050565b600082825260208201905092915050565b600081905092915050565b6000612ca782612dc1565b9150612cb283612dc1565b9250827fffffffffffffffffffffffffffffffffffffffffffffffffffffffffffffffff03821115612ce757612ce6612eea565b5b828201905092915050565b6000612cfd82612dc1565b9150612d0883612dc1565b925082612d1857612d17612f19565b5b828204905092915050565b6000612d2e82612dc1565b9150612d3983612dc1565b925082821015612d4c57612d4b612eea565b5b828203905092915050565b6000612d6282612da1565b9050919050565b60008115159050919050565b60007fffffffff0000000000000000000000000000000000000000000000000000000082169050919050565b600073ffffffffffffffffffffffffffffffffffffffff82169050919050565b6000819050919050565b82818337600083830152505050565b60005b83811015612df8578082015181840152602081019050612ddd565b83811115612e07576000848401525b50505050565b60006002820490506001821680612e2557607f821691505b60208210811415612e3957612e38612f48565b5b50919050565b612e4882612fa6565b810181811067ffffffffffffffff82111715612e6757612e66612f77565b5b80604052505050565b6000612e7b82612dc1565b91507fffffffffffffffffffffffffffffffffffffffffffffffffffffffffffffffff821415612eae57612ead612eea565b5b600182019050919050565b6000612ec482612dc1565b9150612ecf83612dc1565b925082612edf57612ede612f19565b5b828206905092915050565b7f4e487b7100000000000000000000000000000000000000000000000000000000600052601160045260246000fd5b7f4e487b7100000000000000000000000000000000000000000000000000000000600052601260045260246000fd5b7f4e487b7100000000000000000000000000000000000000000000000000000000600052602260045260246000fd5b7f4e487b7100000000000000000000000000000000000000000000000000000000600052604160045260246000fd5b6000601f19601f8301169050919050565b7f4552433732313a207472616e7366657220746f206e6f6e20455243373231526560008201527f63656976657220696d706c656d656e7465720000000000000000000000000000602082015250565b7f4f776e61626c653a206e6577206f776e657220697320746865207a65726f206160008201527f6464726573730000000000000000000000000000000000000000000000000000602082015250565b7f4552433732313a207472616e736665722066726f6d20696e636f72726563742060008201527f6f776e6572000000000000000000000000000000000000000000000000000000602082015250565b7f4552433732313a20746f6b656e20616c7265616479206d696e74656400000000600082015250565b7f4552433732313a207472616e7366657220746f20746865207a65726f2061646460008201527f7265737300000000000000000000000000000000000000000000000000000000602082015250565b7f4552433732313a20617070726f766520746f2063616c6c657200000000000000600082015250565b7f56523a205a65726f206475726174696f6e000000000000000000000000000000600082015250565b7f4552433732313a206f70657261746f7220717565727920666f72206e6f6e657860008201527f697374656e7420746f6b656e0000000000000000000000000000000000000000602082015250565b7f56523a2045787069726564000000000000000000000000000000000000000000600082015250565b7f4552433732313a20617070726f76652063616c6c6572206973206e6f74206f7760008201527f6e6572206e6f7220617070726f76656420666f7220616c6c0000000000000000602082015250565b7f56523a20436f6e74726f6c6c6572206e6f7420666f756e640000000000000000600082015250565b7f4552433732313a2062616c616e636520717565727920666f7220746865207a6560008201527f726f206164647265737300000000000000000000000000000000000000000000602082015250565b7f4552433732313a206f776e657220717565727920666f72206e6f6e657869737460008201527f656e7420746f6b656e0000000000000000000000000000000000000000000000602082015250565b7f4552433732313a206d696e7420746f20746865207a65726f2061646472657373600082015250565b7f4552433732313a20617070726f76656420717565727920666f72206e6f6e657860008201527f697374656e7420746f6b656e0000000000000000000000000000000000000000602082015250565b7f4f776e61626c653a2063616c6c6572206973206e6f7420746865206f776e6572600082015250565b7f4552433732314d657461646174613a2055524920717565727920666f72206e6f60008201527f6e6578697374656e7420746f6b656e0000000000000000000000000000000000602082015250565b7f4552433732313a20617070726f76616c20746f2063757272656e74206f776e6560008201527f7200000000000000000000000000000000000000000000000000000000000000602082015250565b7f4552433732313a207472616e736665722063616c6c6572206973206e6f74206f60008201527f776e6572206e6f7220617070726f766564000000000000000000000000000000602082015250565b7f56523a204e6f7420657870697265640000000000000000000000000000000000600082015250565b6134bc81612d57565b81146134c757600080fd5b50565b6134d381612d69565b81146134de57600080fd5b50565b6134ea81612d75565b81146134f557600080fd5b50565b61350181612dc1565b811461350c57600080fd5b5056fea264697066735822122021d212f16b88a51b4610f1c49305e6ba1185b64836527783fb479997cd68140b64736f6c63430008040033",
  "devdoc": {
    "kind": "dev",
    "methods": {
      "approve(address,uint256)": {
        "details": "See {IERC721-approve}."
      },
      "balanceOf(address)": {
        "details": "See {IERC721-balanceOf}."
      },
      "getApproved(uint256)": {
        "details": "See {IERC721-getApproved}."
      },
      "isApprovedForAll(address,address)": {
        "details": "See {IERC721-isApprovedForAll}."
      },
      "name()": {
        "details": "See {IERC721Metadata-name}."
      },
      "owner()": {
        "details": "Returns the address of the current owner."
      },
      "ownerOf(uint256)": {
        "details": "See {IERC721-ownerOf}."
      },
      "renounceOwnership()": {
        "details": "Leaves the contract without owner. It will not be possible to call `onlyOwner` functions anymore. Can only be called by the current owner. NOTE: Renouncing ownership will leave the contract without an owner, thereby removing any functionality that is only available to the owner."
      },
      "safeTransferFrom(address,address,uint256)": {
        "details": "See {IERC721-safeTransferFrom}."
      },
      "safeTransferFrom(address,address,uint256,bytes)": {
        "details": "See {IERC721-safeTransferFrom}."
      },
      "setApprovalForAll(address,bool)": {
        "details": "See {IERC721-setApprovalForAll}."
      },
      "supportsInterface(bytes4)": {
        "details": "See {IERC165-supportsInterface}."
      },
      "symbol()": {
        "details": "See {IERC721Metadata-symbol}."
      },
      "tokenURI(uint256)": {
        "details": "See {IERC721Metadata-tokenURI}."
      },
      "transferFrom(address,address,uint256)": {
        "details": "See {IERC721-transferFrom}."
      },
      "transferOwnership(address)": {
        "details": "Transfers ownership of the contract to a new account (`newOwner`). Can only be called by the current owner."
      }
    },
    "version": 1
  },
  "userdoc": {
    "kind": "user",
    "methods": {},
    "version": 1
  },
  "storageLayout": {
    "storage": [
      {
        "astId": 130,
        "contract": "contracts/Registrar.sol:Registrar",
        "label": "_name",
        "offset": 0,
        "slot": "0",
        "type": "t_string_storage"
      },
      {
        "astId": 132,
        "contract": "contracts/Registrar.sol:Registrar",
        "label": "_symbol",
        "offset": 0,
        "slot": "1",
        "type": "t_string_storage"
      },
      {
        "astId": 136,
        "contract": "contracts/Registrar.sol:Registrar",
        "label": "_owners",
        "offset": 0,
        "slot": "2",
        "type": "t_mapping(t_uint256,t_address)"
      },
      {
        "astId": 140,
        "contract": "contracts/Registrar.sol:Registrar",
        "label": "_balances",
        "offset": 0,
        "slot": "3",
        "type": "t_mapping(t_address,t_uint256)"
      },
      {
        "astId": 144,
        "contract": "contracts/Registrar.sol:Registrar",
        "label": "_tokenApprovals",
        "offset": 0,
        "slot": "4",
        "type": "t_mapping(t_uint256,t_address)"
      },
      {
        "astId": 150,
        "contract": "contracts/Registrar.sol:Registrar",
        "label": "_operatorApprovals",
        "offset": 0,
        "slot": "5",
        "type": "t_mapping(t_address,t_mapping(t_address,t_bool))"
      },
      {
        "astId": 7,
        "contract": "contracts/Registrar.sol:Registrar",
        "label": "_owner",
        "offset": 0,
        "slot": "6",
        "type": "t_address"
      },
      {
        "astId": 2571,
        "contract": "contracts/Registrar.sol:Registrar",
        "label": "expiries",
        "offset": 0,
        "slot": "7",
        "type": "t_mapping(t_uint256,t_uint256)"
      },
      {
        "astId": 2575,
        "contract": "contracts/Registrar.sol:Registrar",
        "label": "controllers",
        "offset": 0,
        "slot": "8",
        "type": "t_mapping(t_address,t_bool)"
      }
    ],
    "types": {
      "t_address": {
        "encoding": "inplace",
        "label": "address",
        "numberOfBytes": "20"
      },
      "t_bool": {
        "encoding": "inplace",
        "label": "bool",
        "numberOfBytes": "1"
      },
      "t_mapping(t_address,t_bool)": {
        "encoding": "mapping",
        "key": "t_address",
        "label": "mapping(address => bool)",
        "numberOfBytes": "32",
        "value": "t_bool"
      },
      "t_mapping(t_address,t_mapping(t_address,t_bool))": {
        "encoding": "mapping",
        "key": "t_address",
        "label": "mapping(address => mapping(address => bool))",
        "numberOfBytes": "32",
        "value": "t_mapping(t_address,t_bool)"
      },
      "t_mapping(t_address,t_uint256)": {
        "encoding": "mapping",
        "key": "t_address",
        "label": "mapping(address => uint256)",
        "numberOfBytes": "32",
        "value": "t_uint256"
      },
      "t_mapping(t_uint256,t_address)": {
        "encoding": "mapping",
        "key": "t_uint256",
        "label": "mapping(uint256 => address)",
        "numberOfBytes": "32",
        "value": "t_address"
      },
      "t_mapping(t_uint256,t_uint256)": {
        "encoding": "mapping",
        "key": "t_uint256",
        "label": "mapping(uint256 => uint256)",
        "numberOfBytes": "32",
        "value": "t_uint256"
      },
      "t_string_storage": {
        "encoding": "bytes",
        "label": "string",
        "numberOfBytes": "32"
      },
      "t_uint256": {
        "encoding": "inplace",
        "label": "uint256",
        "numberOfBytes": "32"
      }
    }
  }
}